:020000040800F2
:10000000880A002021200008BD060008BF0600085D
:10001000C3060008C7060008CB0600080000000061
:10002000000000000000000000000000CF060008F3
:10003000D106000800000000D3060008D50600081D
:100040003B2000083B2000083B2000083B20000824
:100050003B2000083B2000083B2000083B20000814
:100060003B2000083B2000083B2000083B20000804
:100070003B2000083B2000083B2000083B200008F4
:100080003B2000083B2000083B2000083B200008E4
:100090003B2000083B2000083B2000083B200008D4
:1000A0003B2000083B2000083B2000083B200008C4
:1000B0003B200008510500083B2000083B200008B9
:1000C0003B2000083B2000083B2000083B200008A4
:1000D0003B200008591C00089D1E0008771D0008E1
:1000E0003B2000083B2000083B2000083B20000884
:1000F0003B2000083B2000083B2000083B20000874
:100100003B2000083B2000083B2000083B20000863
:100110003B2000083B2000083B2000083B20000853
:100120003B2000083B2000083B2000083B20000843
:1001300000F002F800F05CF80AA090E8000C82449D
:100140008344AAF10107DA4501D100F051F8AFF27A
:10015000090EBAE80F0013F0010F18BFFB1A43F0A5
:1001600001031847E0690000006A00000A4410F823
:10017000014B14F00F0508BF10F8015B240908BFFC
:1001800010F8014B6D1E05D010F8013B6D1E01F8F3
:10019000013BF9D1641E03D0641E01F8015BFBD161
:1001A0009142E4D37047000000230024002500267C
:1001B000103A28BF78C1FBD8520728BF30C148BFCA
:1001C0000B6070471FB59DE8030003F0E7FE04F0E5
:1001D000BDFA04000020002105F026FA401C6060F2
:1001E0000020002105F00AFAE0601FBD10B510BD27
:1001F00003F0B8FF1146FFF7E5FF00F04EF804F0FA
:1002000031FA03B4FFF7F2FF03BC01F0D7FC0000A2
:100210000020B3490871B348008810B1402008712C
:1002200002E00020AE4908714FF08040808EB0F5AA
:10023000AF6F05D1AA48007940F02000A8490871A5
:100240004FF08040808E18B9A5480079A449087104
:100250004FF08040008FB0F5C86F05D1A0480079FD
:1002600040F001009E4908714FF08040008F40F23D
:100270001451884203D19A480079994908714FF086
:100280008040008F40F24C41884205D1944800796B
:1002900040F0020092490871704701F048F900E10E
:1002A000914800780C28FADB00208F49087001F093
:1002B00091F90121042001F002FC044606F0B4F893
:1002C0008A4908608A4908604FF08B418748006876
:1002D00005F060FF804605F0C3FE06464FF066322B
:1002E000844B05F09FFC044605F0B4F97F49086093
:1002F0000846006805F0B4FE80467F4A7F4B05F053
:10030000C5FD824600227E4B05F08CFC06464FF070
:1003100033327C4B05F08CFA044605F09BF97349A7
:10032000086079497148006806F092F902D276486F
:100330006E49086000207549086075490870DD2025
:1003400067490870487088700020C870FFF760FF28
:10035000704801686C4806F0AFF8044606F010F8E3
:1003600000B26D4908806D480168674806F0A4F83E
:10037000044606F005F800B26749488068480168FD
:10038000684806F099F8044605F0FAFF00B26249A1
:100390008880654801685C4806F08EF8044605F0E0
:1003A000EFFF00B25C49C88060480168564806F01B
:1003B00083F8044605F0E4FF00B257490881084677
:1003C00000784749487154480088000A88715248AB
:1003D0008078C87150484088000A08724E480079F9
:1003E00048724D488088000A88724B488079C872EC
:1003F0004948C088000A08734748007A487346484D
:100400000089000A88734A48006805F0D5FF34491E
:10041000C8744848006805F0CFFF31490875464860
:10042000006805F0C9FF2E49C8734448006805F00C
:10043000C3FF2B4908744248006805F0BDFFC0B2F5
:10044000C82190FBF1F02649C8751821244800F016
:1004500053FF00B23049488108464089000A2049CC
:1004600008762D48807A487600203649086012E0E8
:100470001B48344A1268815C334802F01BFB00BF02
:100480004021314802F084FB0128F9D12D48006851
:10049000401C2C4908602B4800682C490968884298
:1004A000E6D3FDE60188082901DA012200E00022F6
:1004B00011460288082A01DD012200E000220280A4
:1004C00002880A440280704700B5002305E0124903
:1004D00001EB4300FFF7E6FF5B1C052BF7DB00BDDC
:1004E000440300207A0100203C0000200C00002082
:1004F0001000002066660A40CDCCCCCCCCCC0440A9
:10050000000059403333E33F0000C84200000020A0
:100510008A01002094010020C001002098010020E1
:10052000440100200000C8C2480100204C01002006
:100530001C000020200000201400002018000020D3
:100540003400002004000020003801400800002092
:1005500010B56148008800F0010000287ED04FF6F9
:10056000FE705D4908805D48007800B910BD5C48A8
:100570000068401C5A4908605A480078401C594994
:10058000087059480078401C57490870574801685E
:100590005748006805F0C0FE1DD055480168534813
:1005A000006805F055FF07D24FF07E514F480068B4
:1005B00005F082FD4D4908604D4801684B480068D0
:1005C00006F046F807D24FF07E514848006806F022
:1005D0007BF846490860474801684748006805F0CD
:1005E0009BFE1DD0444801684248006805F030FF7A
:1005F00007D24FF07E513F48006805F05DFD3D4950
:1006000008603D4801683B48006806F021F807D2C1
:100610004FF07E513748006806F056F835490860BB
:10062000364801683648006805F076FE1FD0344829
:1006300001683248006805F00BFF07D24FF07E5189
:100640002E48006805F038FD2C4908602C480168E8
:100650002A48006805F0FCFF09D200E02CE04FF0CA
:100660007E512648006806F02FF824490860254886
:1006700001682548006805F04FFE1DD0224801683A
:100680002048006805F0E4FE07D24FF07E511D4877
:10069000006805F011FD1B4908601B4801681948F6
:1006A000006805F0D5FF07D24FF07E51154800686D
:1006B00006F00AF81349086000BF57E7704700BF0B
:1006C000FEE700BFFEE700BFFEE700BFFEE77047A2
:1006D0007047704770470000100400405801002028
:1006E000800100203C0000203D0000204000002050
:1006F000700000204400002074000020480000200A
:10070000800000204C000020840000200CB5002058
:10071000019000906C48006840F480306A4908609D
:1007200000BF6948006800F4003000900198401C48
:100730000190009818B90198B0F5A06FF1D1624806
:10074000006800F4003010B10120009001E00020AA
:1007500000900098012843D15C48006840F01000E8
:100760005A4908600846006820F0030008600846FF
:10077000006840F0020008605348406852494860F1
:100780000846406848600846406840F48060486019
:100790000846406820F47C1048600846406840F4F1
:1007A000E81048600846006840F08070086000BFAC
:1007B0004548006800F000700028F9D042484068C1
:1007C00020F00300404948600846406840F00200BD
:1007D000486000BF3C48406800F00C000828F9D190
:1007E0000CBD10B5FFF792FF10BD10B5364800687C
:1007F00040F0010034490860084640683449084028
:100800003149486008460068324908402E4908606E
:100810000846006820F4802008600846406820F4FC
:10082000FE0048604FF41F008860FFF7DAFF4FF0CA
:1008300000602949086010BD10B500210020002289
:10084000214B5B6803F00C0121B1042906D0082973
:1008500028D107E0214B224C236027E01F4B204C7E
:10086000236023E0184B5B6803F47010164B5B6841
:1008700003F48032022303EB904022B9194B434327
:10088000174C23600DE0104B5B6803F4003323B179
:10089000144B4343124C236003E0104B4343104C72
:1008A000236003E00D4B0E4C236000BF00BF064BDE
:1008B0005B68C3F303130C4CE15C094B1B68CB4032
:1008C000074C236010BD00000010024000200240D1
:1008D0000000FFF8FFFFF6FE08ED00E000127A00CE
:1008E0005000002000093D00540000202DE9F04197
:1008F000FE49C87905F047F906460022FC4B04F092
:1009000097FF044604F0A6FEFA490860F749087A02
:1009100005F039F906460022F54B04F089FF04463C
:1009200004F098FEF4490860F049487A05F02BF984
:1009300006460022EE4B04F07BFF044604F08AFEDC
:10094000EE490860E949087905F06EFDEC49086058
:1009500008460168EB4805F0AFFDE9490860E34946
:10096000487905F061FDE84908600846006805F02F
:1009700077FB06460022E54B04F05AFF044604F0DC
:1009800069FEE1490860D949887905F04DFDE049E3
:10099000086008460168DF4805F08EFDDC49086004
:1009A000D7480068DC49C860DC490860D648006860
:1009B000D9490861DA490860D5480068D6494861D4
:1009C000D8490860CB480068D749C860D749086053
:1009D000C9480068D4490861D5490860C74800681B
:1009E000D1494861D3490860BDE8F0812DE9F05F45
:1009F0000446BE48C07A00020FFA80F9BB49897AE2
:100A000041EA090005F0F8FC834605F029FB07469A
:100A10000022C94B04F00CFF054604F01BFEC74939
:100A20000860C4F1800005F0E7FC8246C448C0F8C5
:100A300000A0AE48C07800F00700022805D0AB48FF
:100A4000C07800F00700012877D1BC480068BD4994
:100A5000086008460168BC48006805F035FEBB49DF
:100A60000860BB49B948006805F0F2FD02D2B848F9
:100A7000B6490860B749B548006805F0E9FC02D2FC
:100A8000B448B2490860B1480168B348006805F04D
:100A900013FBB1490860B1490860B1480068401CC7
:100AA000AF490860A9480168AE48006805F004FB3A
:100AB000AC490860AA480068052812D108460068B9
:100AC00005F0CEFA07460022A74B04F0B1FE05461A
:100AD00004F0C0FDA5490860A54908600020A149AF
:100AE0000860A24801689948006805F0EDFDA14939
:100AF0000860A14908608849C8689449096805F0F8
:100B0000DBFC9E490860844908699349096805F03F
:100B1000D3FC9B490860804948699649096805F0FB
:100B2000CBFC9849086098499548006805F090FD0D
:100B300004D895489249086009E025E09349904817
:100B4000006805F085FC02D890488D49086072491C
:100B500048698849096805F0AFFC06466E49C868CF
:100B60007A49096805F0A8FC0746854801683846B7
:100B700005F0A2FA0546314605F09EFA80F00040E5
:100B80006F4908608249086082496D48006805F035
:100B900093FC814908607F496948006805F08CFC36
:100BA0007E490860BDE8F09F2DE9FF4F8FB00D46EC
:100BB0001E46DDF874800F98C0F180000FFA80F9AE
:100BC00009FB05F00A2190FBF1F0069005F014FCFA
:100BD0007349086009FB05F00A2190FBF1F00690CB
:100BE00005F00AFC6F49086009FB05F00A2190FB3B
:100BF000F1F0069005F000FC0B901198C0F1800018
:100C00000FFA80FA0AFB06F00A2190FBF1F005903A
:100C100005F0F2FB069062480168069805F049FD70
:100C20005F4908600AFB06F00A2190FBF1F005908D
:100C300005F0E2FB06905B480168069805F03CFA77
:100C4000584908600AFB06F00A2190FBF1F0069073
:100C500005F0D2FB0A904FF0000B2448C07800F05A
:100C60000700032805D02148C07800F007000128BC
:100C70003AD11E48407B000201B20E911B490A7B0B
:100C80000E9942EA010005F0B7FB019005F0E8F982
:100C90000022294BCDE9020104F0CAFDCDE904018F
:100CA00004F0D8FC07461148407B3F490978884248
:100CB00005D10E48007B3D49097888420CD00020C0
:100CC0003B4908803B4908800848407B364908700A
:100CD0000648007B35490870374807603748006888
:100CE00005F04EFB00B26BE0C0E00000FC0200200B
:100CF0000000244004010020080100200C01002015
:100D000010010020000020411401002000003440A8
:100D1000180100200000A041EC010020C8000020C4
:100D2000CC000020D00000202C020020D4000020A5
:100D3000D8000020DC00002000408F40F800002098
:100D40009C000020BC000020940100208C000020AA
:100D500000004842000048C290000020E800002047
:100D600024010020200100200000144098000020F1
:100D7000EC00002094000020F0000020640000201F
:100D8000680000206C0000200000C8430000C8C3B9
:100D9000F40000200000A04080000020840000201B
:100DA0007000002074000020FC000020FD000020E6
:100DB000FE00002000010020E40000204C01002083
:100DC0000D900D9805F018FB3946059005F071FC63
:100DD000069005F0D5FA04B202E0A4F5B47004B2AE
:100DE000B42CFADC02E004F5B47004B214F1B40FD0
:100DF000F9DB0D9805F000FB07465F4800882044AA
:100E000000B25D4908805D480088201A00B20C904D
:100E10005A4804800C9805F0EFFA0390584841694D
:100E2000039805F049FB05905348B0F9000005F020
:100E3000E3FA019052480169019805F03DFB0390E7
:100E4000204605F0D9FA01904D48C168019805F097
:100E500033FB0290039905F02FF90490059905F0F2
:100E60002BF9069005F08CFA0FFA80FB4248B0F996
:100E7000000041F28831884203DD08463E4908807F
:100E800009E03D48B0F900003E49884203DA4EF6D9
:100E90007840394908800BFB08F00A2190FBF1F0FB
:100EA000059005F0A9FA069037480168069805F004
:100EB00000FC354908600BFB08F00A2190FBF1F0BB
:100EC000059005F099FA069030480168069805F0FB
:100ED000F3F82E4908600BFB08F00A2190FBF1F0B3
:100EE000059005F089FA06900A9905F0E5F80A9050
:100EF000DDE90A0105F0E0F8039005F0B1F821F012
:100F00000041CDE9040104F0A5FB0990DDE90A01E7
:100F100005F0DAFB039005F0A3F821F00041CDE9DC
:100F2000040104F097FB0890DDE9081005F090FA41
:100F300001D2089800E0099807901549079805F034
:100F400087FB15D210480799006805F023F910496E
:100F5000069005F0B1FA0C4908600C480799006842
:100F600005F018F90A49069005F0A6FA0749086045
:100F700013B0BDE8F08F0000FE000020000100204B
:100F80002C02002078ECFFFF70000020740000208D
:100F90000000C84300210022002006E0A14B1B5C9A
:100FA0000B44D9B25318DAB2401C1428F6DB704750
:100FB0002DE9F0470024A146022008E09949095C88
:100FC0002144CCB209EB040101F0FF09401C1328B5
:100FD000F4DB0020944908609248C07CA0427DD197
:100FE0009048007D4845FAD1012008608D49C979B3
:100FF0008C4A127A01EB02218A4A527A01EB0241B1
:10100000884A927A01EB026004F0A6FD0746874AFF
:10101000874B04F007FE054604F01CFB8549086079
:101020008049C97A7F4A127B01EB02217D4A527BBB
:1010300001EB02417B4A927B01EB026004F08CFDE4
:1010400007467A4A7A4B04F0EDFD054604F002FBB0
:10105000794908607349C97B724A127C01EB02210D
:10106000704A527C01EB02416E4A927C01EB0260B5
:1010700004F072FD05466D4A6D4B04F0D3FD074642
:1010800004F0E8FA6D4908606A4800686949086038
:1010900000216948006805F0DBFA07D8684966480E
:1010A000006805F011FB6449086006E062480168C9
:1010B000634805F001F860490860604800685F49CE
:1010C00008605C4801685F4805F0FEFA054605F0D7
:1010D00057F900B25C4908805C4900E09FE056483F
:1010E000006805F0E9F9054605F04AF900B2C821A3
:1010F00090FBF1F05649087054494F48006805F0DC
:10110000DBF9054605F03CF900B2C82190FBF1F28D
:1011100001FB12004E4948704C494648006805F0F2
:10112000CBF9054605F02CF900B2C82190FBF1F08F
:101130004749887045493F48006805F0BDF90546B4
:1011400005F01EF900B2C82190FBF1F201FB12007C
:101150003F49C8703D493948006805F0ADF905467A
:1011600005F00EF900B2C82190FBF1F03849087182
:1011700036493248006805F09FF9054605F000F948
:1011800000B2C82190FBF1F201FB12003049487116
:10119000487805F049F907462C4904F0FBFF05465D
:1011A0002B49087805F040F907464FF0804105F0DB
:1011B00083F90646294604F07FFF26490860244942
:1011C000C87805F031F90746204904F0E3FF0546E9
:1011D0001F49887805F028F907464FF0804105F04F
:1011E0006BF90646294604F067FF1B490860184959
:1011F000487905F019F90746144904F0CBFF054674
:101200001349087905F010F907464FF0804105F0C1
:1012100053F90646294604F04FFF10490860BDE81F
:10122000F087000016030020540100208DEDB5A0CA
:10123000F7C6B03E44010020480100204C010020C8
:10124000000034430000B442A00000200000C84267
:10125000D80200202C0100203001002034010020A1
:101260002DE9F05F0024A34607200AE05B49095CF2
:10127000442900D104465949095C0D2900D183460F
:10128000401C1228F2DBA4F10209484602F010FECD
:101290000546ABEB0400A0F1020A504602F008FE3E
:1012A0000646022004E04D490A5C811E6A54401C37
:1012B000A042F8DBA01C05E048490A5C011B891E1E
:1012C0007254401C5845F7DB284604F01BF90746CA
:1012D00004F0C0F942490860304604F013F90746AB
:1012E00004F0B8F93F490860304602F010FE284685
:1012F00002F00DFEBDE8F09FF0B502460B46FF245C
:10130000FF2500260BE03046771CFEB2105C80EA19
:1013100005013548405C80EA04053448445C180007
:10132000A3F10103EFD144EA0520F0BD70B500241C
:1013300000252F48807D04434FF6FF7000EA042407
:10134000FFF78EFF16212A48FFF7D6FF2849C97DEF
:101350002143884240D12648807B26490880244882
:10136000C07B254908802248007C24490880204809
:10137000C07800F0070018B900202149088002E079
:1013800001201F4908801A48C078C01128B14FF4C5
:10139000AF604FF08041888603E000204FF080412D
:1013A00088861348C078C0F3C100012804D14FF4E7
:1013B000C860010608870FE00D48C078C0F3C1007F
:1013C00028B940F2DC504FF08041088704E040F239
:1013D0004C404FF08041088770BD00003003002072
:1013E0009801002094010020AE680008AE69000852
:1013F000FC0200206C0100206E010020680100202A
:101400007A01002010B586B059208DF810005320C5
:101410008DF8110002208DF8120009208DF81300BC
:1014200000208DF8140003208DF815000E208DF893
:10143000160026208DF8170000240CE004A8015D9A
:10144000A64801F037FB00BF4021A44801F0A0FBF3
:101450000128F9D1641C082CF0DB59208DF8040018
:1014600053208DF8050003208DF8060009208DF823
:10147000070000208DF8080005208DF809001120D4
:101480008DF80A002C208DF80B0000240CE004A835
:10149000015D924801F00EFB00BF40218F4801F032
:1014A00077FB0128F9D1641C082CF0DB06B010BDD5
:1014B00008B54FF4A06000F0D3FD1D208DF80000AA
:1014C00002208DF801008DF8020001208DF8030044
:1014D000684600F0CAFD25208DF8000001208DF837
:1014E000010000208DF8020001208DF803006846FD
:1014F00000F0BBFD27208DF8000000208DF80100D2
:1015000001208DF802008DF80300684600F0ADFD63
:1015100026208DF8000000208DF8010001208DF8B4
:1015200002008DF80300684600F09FFD08BD1FB55E
:10153000FFF7BEFF00F00AFD4FF4E13000F04EFB74
:101540004FF4E13000F068FC4FF4E12000F0CFFBF5
:1015500000F05CFA00F085F9002000900190029004
:10156000034602460146039000F0A3F94FF41670BB
:1015700000F0D4FA00205A49088001205949087027
:101580001FBD70B50546022D01D1042404E0012DD4
:1015900001D16C1F00E00024204604F02DFF064618
:1015A00051480168304604F087FD4F4908604F49B3
:1015B0004D48006805F04CF802D24C484A49086092
:1015C0004B494948006804F043FF02D24848464965
:1015D000086070BD2DE9FF414FF480504549086017
:1015E000FFF7E6FCFFF7A2FE4348008848B9002059
:1015F000009001900290034602460146039000F0DD
:1016000058F93D480088002839D03C480088FFF749
:10161000B8FF0A203A4909881423CDE90010394857
:101620000288194638480088FFF7BEFA0422374876
:10163000018837480088FFF7D9F90120354908802B
:101640003548006804F09CFE04B23448006804F099
:1016500097FE05B23248006804F092FE06B23148A7
:10166000006804F08DFE07B2002000900190029007
:1016700023462A4631460390384600F01AF91B49A2
:101680001948006804F0E4FF02D2184816490860BF
:1016900017491548006804F0DBFE02D214481249CD
:1016A00008601148006804F087FE4FF08041888789
:1016B0000B48008871214843012101EBC0101A49F1
:1016C000088088140B49091D0860BDE8FF814FF4AC
:1016D000005008490860091D086070470048004034
:1016E0007C010020580100205C0100200080ED44B6
:1016F00000808944100C01407A010020760100200E
:10170000700100206E0100206C0100206A010020A1
:1017100068010020780100204C00002048000020D3
:1017200044000020400000204000004000B587B089
:101730000121084601F02BF844F61F60ADF81400B3
:101740004720ADF810000020ADF81600ADF81200EB
:1017500004A94FF0804001F071FD6020ADF8000059
:101760000120ADF802000020ADF80600ADF8080039
:1017700069464FF0804001F09EFD0821C80602F046
:10178000E9F969464FF0804001F0D7FD0821C8060D
:1017900002F0E9F969464FF0804001F01BFE082194
:1017A000C80602F0EDF969464FF0804001F05DFE99
:1017B0000821C80602F0EDF90121880702F09AF924
:1017C0000121880702F096F807B000BD00B587B088
:1017D0000121042000F0DBFF44F61F60ADF8140087
:1017E0004720ADF810000020ADF81600ADF812004B
:1017F00004A9BE4801F022FD6020ADF800000120E0
:10180000ADF802000020ADF80600ADF8080069460A
:10181000B64801F050FD0821B44802F09BF9694632
:10182000B24801F08AFD0821B04802F09CF96946EF
:10183000AE4801F0CFFD0821AC4802F0A1F969469D
:10184000AA4801F012FE0821A84802F0A2F90121DD
:10185000A64802F04FF90121A44802F04BF807B066
:1018600000BD08B50121082000F084FF4FF470701E
:10187000ADF8000003208DF8020018208DF8030059
:1018800069469B4800F0BAFC0121042000F072FF79
:101890000320ADF800008DF8020018208DF8030039
:1018A0006946944800F0AAFCFFF790FFFFF73EFF5F
:1018B00008BD2DE9F05F04460D4616469946B4F57D
:1018C000E17F01DD4FF4E17414F5E17F00DA8A4C29
:1018D000B5F5E17F01DD4FF4E17515F5E17F00DA43
:1018E000854DB6F5E17F01DD4FF4E17616F5E17F38
:1018F00000DA814EB9F5E17F01DD4FF4E17919F5A8
:10190000E17F01DADFF8F09104F2E15077493831F4
:10191000088005F2E150091F088006F2E150734982
:101920003C31088040F2E150A0EB0900091D08801D
:101930006E4938310988A1F21F4004F00DF90746BD
:1019400000226E4B03F074FF824603F083FE6C4965
:101950000860664934310988A1F21F4004F0FCF8A0
:1019600007460022654B03F063FF824603F072FED8
:10197000644908605D493C310988A1F21F4004F0C8
:10198000EBF8074600225D4B03F052FF824603F05E
:1019900061FE5D490860554940310988A1F21F4048
:1019A00004F0DAF807460022544B03F041FF824668
:1019B00003F050FE55490860BDE8F09FB0F5FA7F8E
:1019C00001DD4FF4FA7010F5C87F01DA4A48323071
:1019D00000F2DC514FF080429187704770B50446A9
:1019E000B4F5FA7F01DD4FF4FA7414F5C87F01DA1B
:1019F000414C323404F2DC5004F0FEFC444905460C
:101A0000086004F0D9FC4349088070BD00B587B078
:101A100001214FF4017000F0ADFE4FF4004000F0E2
:101A20000DFE1020ADF8040000208DF8070001A97C
:101A3000304800F0E3FB384801F004F90020029040
:101A40008DF80C008DF80D004FF4602004900020FC
:101A5000059001208DF8180002A92F4801F019F90E
:101A600001212D4801F041F92B4801F060F900BF38
:101A7000294801F061F90028FAD1274801F066F9F8
:101A800000BF254801F067F90028FAD107B000BD72
:101A900010B504460723012221461F4801F091F9A1
:101AA00001211D4801F061F900BF02211A4801F02F
:101AB000CDFA0028F9D0184801F0EAF910BD2DE957
:101AC000F04107460C460025002608E03846FFF79F
:101AD000DFFF0544022000F076FA701CC6B2A64271
:101AE000F4DBB5FBF4F080B2BDE8F0810008004003
:101AF000000C0140000801403EFEFFFF00001240C4
:101B000014000020180000201C00002020000020ED
:101B10003800002040000040002401403EB504464B
:101B20000121022000F033FE20480480204801F00B
:101B3000B1FA204890FBF4F080B2ADF804004720E1
:101B4000ADF800000020ADF80600ADF802006946CF
:101B5000174801F073FB0121154802F091F90122A9
:101B60001146134801F0E1FE0121114801F0C2FEC7
:101B70003EBD08B50121082000F0FCFD4FF4805067
:101B8000ADF8000010208DF8030003208DF802004E
:101B90006946094800F032FB4FF40050ADF80000F0
:101BA0006946054800F02AFB08BD000084010020BA
:101BB0000004004040420F00000C014000BF70478D
:101BC00000BFD34A128802F04002002AF9D0C2B204
:101BD000CF4B1B1D1A80704700BF704710B586B0F1
:101BE0000446012144F2040000F0C4FD4FF40070EB
:101BF000ADF8140003208DF8160018208DF817009A
:101C000005A9C44800F0FAFA4FF48060ADF814005A
:101C100004208DF8170005A9BE4800F0EFFA0194E2
:101C20000020ADF80800ADF80A00ADF80C00ADF8E2
:101C300010000C20ADF80E0001A9B54800F041FEDF
:101C4000012240F22551B24800F0D3FE0121B048F4
:101C500000F0C3FE06B010BD10B50120AE490870FB
:101C600040F22551AA4800F0A9FF00283ED0A8481C
:101C700000F024FFC4B2A9480078B8B9DD2C0FD118
:101C8000A74801780078401CA54A1070A548445424
:101C900010460078022829DD0120A049087025E0BF
:101CA00000209E4908709E4908701FE09B480078FC
:101CB000012812D19A4801780078401C984A107087
:101CC000984844541046007817280FDD02209349A5
:101CD000087000201146087008E09048007802283B
:101CE00004D100208D4908708D49087010BD10B5D1
:101CF00086B004460121092000F03CFD0121880442
:101D000000F045FD4FF48060ADF8140018208DF808
:101D1000170003208DF8160005A9834800F06EFA1D
:101D20004FF40060ADF8140004208DF81700032074
:101D30008DF8160005A97C4800F060FA0194002097
:101D4000ADF80800ADF80A00ADF80C00ADF81000D1
:101D50000C20ADF80E0001A9744800F0B2FD01227C
:101D600040F22551714800F044FE01216F4800F017
:101D700034FE06B010BD10B540F225516B4800F09E
:101D80001DFF002847D0694800F098FEC4B268489B
:101D9000007898B9592C0BD1664801780078401C1E
:101DA000644A10706448445401206149087032E06C
:101DB00000205F4908705F4908702CE05C4800789B
:101DC000012813D1532C0BD10220594908705948CE
:101DD00001780078401C574A1070574844541AE064
:101DE0000020534908705349087014E050480078A7
:101DF000022810D14F4801780078401C4D4A1070DD
:101E00004D48445410460078152804DB002048490A
:101E100008701146087010BD10B586B00446012147
:101E2000052000F0A7FC0121480400F0B0FC0420CC
:101E3000ADF8140018208DF8170003208DF8160057
:101E400005A9344800F0DAF90820ADF814000420A0
:101E50008DF8170003208DF8160005A92D4800F015
:101E6000CDF901940020ADF80800ADF80A00ADF8F6
:101E70000C00ADF810000C20ADF80E0001A92F48A1
:101E800000F01FFD012240F225512C4800F0B1FD69
:101E900001212A4800F0A1FD06B010BD10B50120B7
:101EA0001D49087040F22551244800F087FE68B3B0
:101EB000224800F003FEC4B22148007898B9542C9F
:101EC0000BD1204801780078401C1E4A10701E4833
:101ED000445401201A49087018E00020184908707D
:101EE0001849087012E01648007801280ED11548EC
:101EF00001780078401C134A1070134844540D2C8C
:101F000004D100200E4908701146087010BD000071
:101F100000380140000801408A010020A201002091
:101F2000A3010020FC020020000C014000480040FA
:101F3000A4010020A5010020160300200044004059
:101F4000A6010020A70100203003002010B56FF08B
:101F5000040000F0D4F82E4800682E49B0FBF1F0E0
:101F60002D4908700846007800EB4001C1EBC01015
:101F70004FF6FF7101EAC0002849088010BD0146F4
:101F8000254A12784A434FF0E0235A6100229A61B1
:101F90001A46126942F001021A6100BF4FF0E022B6
:101FA000106900F001021AB100F48032002AF5D065
:101FB0004FF0E022126922F001024FF0E0231A6193
:101FC00000229A6170470146144A12884A434FF032
:101FD000E0235A6100229A611A46126942F0010216
:101FE0001A6100BF4FF0E022106900F001021AB13F
:101FF00000F48032002AF5D04FF0E022126922F07E
:1020000001024FF0E0231A6100229A61704700003C
:102010005000002000127A00A8010020AA01002030
:102020000948804709480047FEE7FEE7FEE7FEE76C
:10203000FEE7FEE7FEE7FEE7FEE7FEE704480549A8
:10204000054A064B70470000EB0700083101000805
:1020500088040020880A00208806002088060020C6
:1020600031490143314A1160704770B500210023A6
:102070000F22C47804B32D4C246804F4E064C4F542
:10208000E064210AC1F10403CA40447804FA03F170
:102090008478144021430901254C0678A155047821
:1020A00004F01F050124AC4005786D11AD0005F169
:1020B000E025C5F8004109E0047804F01F0501247B
:1020C000AC401C4D0678761145F8264070BD1A4A82
:1020D0000A400243154B1B1F1A60704739B1134A5F
:1020E000121D12680243114B1B1D1A6006E00F4AB5
:1020F000121D126882430D4B1B1D1A607047042885
:1021000008D14FF0E021096941F004014FF0E022CD
:10211000116107E04FF0E021096921F004014FF05F
:10212000E0221161704700000000FA050CED00E0AC
:1021300000E400E080E100E080FFFF1F10B50446EE
:10214000CC48844208D10121042000F02DFB00215D
:10215000042000F029FB46E0C748844208D1012151
:10216000082000F021FB0021082000F01DFB3AE0D0
:10217000C248844208D10121102000F015FB002143
:10218000102000F011FB2EE0BD48844208D101214F
:10219000202000F009FB0021202000F005FB22E0B8
:1021A000B848844208D10121402000F0FDFA002106
:1021B000402000F0F9FA16E0B348844208D101212A
:1021C000802000F0F1FA0021802000F0EDFA0AE012
:1021D000AE48844207D10121801500F0E5FA0021C4
:1021E000A01500F0E1FA10BD10B50121084600F07D
:1021F000DBFA0021012000F0D7FA10BD2DE9F041F3
:10220000024600250026002000230024002791F824
:1022100003C00CF00F0591F803C00CF0100CBCF1DA
:10222000000F03D091F802C04CEA050591F800C0F8
:10223000BCF1000F31D0146800202BE04FF0010CEE
:102240000CFA00F3B1F800C00CEA03069E4220D15C
:1022500083004FF00F0C0CFA03F7BC4305FA03FCA4
:102260004CEA040491F803C0BCF1280F06D14FF0EA
:10227000010C0CFA00FCC2F814C00AE091F803C08B
:10228000BCF1480F05D14FF0010C0CFA00FCC2F86C
:1022900010C0401C0828D1D31460B1F800C0BCF1B4
:1022A000FF0F34DD546800202EE000F1080C4FF0E1
:1022B000010808FA0CF3B1F800C00CEA03069E42CC
:1022C00021D183004FF00F0C0CFA03F7BC4305FA41
:1022D00003FC4CEA040491F803C0BCF1280F05D1BB
:1022E00000F1080C08FA0CF8C2F8148091F803C049
:1022F000BCF1480F07D100F1080C4FF0010808FAB3
:102300000CF8C2F81080401C0828CED35460BDE8F9
:10231000F0814FF6FF710180022181700421C170AC
:1023200070470246002093680B400BB1012000E08B
:10233000002070470146886880B27047024600203E
:10234000D3680B400BB1012000E00020704701462C
:10235000C86880B2704701617047416170470AB137
:10236000016100E041617047C16070474FF4803205
:102370000A43826181618261826982697047024693
:102380000020434B18684FF68073184040EA021053
:1023900008433F4B186070473E49C8617047F0B52D
:1023A0000A46002300240021002500F00046B6F173
:1023B000004F02D1364EF16901E0354E7168C0F32D
:1023C000034583B200F44016B6F5401F08D121F052
:1023D00070612F4E766826F070662D4F7E6012E099
:1023E00000F48016B6F5801F06D1032606FA05F420
:1023F000A14341F0706106E0460D360103FA06F68E
:10240000B14341F0706122B1460D360103FA06F680
:10241000314300F00046B6F1004F02D11C4EF1618D
:1024200001E01B4E7160F0BD30B500228B071C0F20
:102430000F2303FA04F2164B08338C1053F82430A0
:102440009343134C08348D1044F8253023468C10E8
:1024500053F824308C07240F00FA04F423430C4C67
:1024600008348D1044F8253030BD0A49DC3108604D
:102470007047000000080140000C014000100140BE
:102480000014014000180140001C014000200140E0
:102490000000014000002042DF48006840F00100D9
:1024A000DD49086008464068DC490840DA49486070
:1024B00008460068DA490840D749086008460068BD
:1024C00020F4802008600846406820F4FE00486040
:1024D0004FF41F0088607047CF49096821F48031AC
:1024E000CD4A11601146096821F480211160B0F5D0
:1024F000803F03D0B0F5802F0ED106E0C6490968B1
:1025000041F48031C44A116007E0C349096841F4CD
:10251000A021C14A116000E000BF00BF704710B5A4
:1025200001460022002300204A11012A02D1BA4CA0
:10253000236806E0022A02D1B74C236A01E0B64CB8
:10254000636A01F01F02012494401C400CB1012079
:1025500000E0002010BD38B50020009000240025C8
:1025600000BF3120FFF7DBFF05460098401C0090BC
:102570000098B0F5A06F01D0002DF2D03120FFF708
:10258000CEFF08B1012400E00024204638BD0146FA
:102590000020A14A106820F0F80040EAC100106055
:1025A0007047A04908607047024600209A4B58685F
:1025B00020F47C1042EA01031843974B586070479F
:1025C00098490866704701460020934A506820F0F9
:1025D00003000843506070478F48406800F00C00CB
:1025E0007047014600208C4A506820F0F0000843F4
:1025F0005060704701460020874A506820F4E06030
:1026000008435060704701460020834A506820F418
:10261000605040EAC1005060704729B17E4A527A4A
:1026200002437D4B5A7204E07B4A527A82437A4BD2
:102630005A7270477B49D8310860704701460020C4
:10264000754A506820F440400843506070470021AC
:10265000714A20321170704A82F82010012802D08D
:1026600004280AD104E001216B4A2032117005E0F0
:102670000521694A2032117000E000BF00BF704799
:102680006949086070476449096A0143624A1162F6
:102690007047654944390860704730B50021002211
:1026A000002400235C4D6D6805F00C0121B1042964
:1026B00005D0082923D105E05C4D056022E05B4D83
:1026C00005601FE0544D6D6805F47012524D6D6841
:1026D00005F48034022505EB92421CB9544D554354
:1026E00005600BE04C4D6D6805F400351DB1504D93
:1026F0005543056002E04D4D5543056002E04B4DEA
:10270000056000BF00BF444D6D6805F0F001090988
:10271000484D6B5C0568DD4045603F4D6D6805F4D4
:10272000E061090A434D6B5C4568DD4085603A4DC8
:102730006D6805F46051C90A3E4D6B5C4568DD402B
:10274000C560354D6D6805F44041890B3A4D6B5CB1
:10275000C568B5FBF3F5056130BD29B12E4A526954
:1027600002432D4B5A6104E02B4A526982432A4BA3
:102770005A61704729B1284A92690243264B9A61EF
:1027800004E0254A92698243234B9A61704729B13C
:10279000214AD2690243204BDA6104E01E4AD26921
:1027A00082431D4BDA61704729B11B4AD26802434C
:1027B000194BDA6004E0184AD2688243164BDA609B
:1027C000704729B1144A12690243134B1A6104E09D
:1027D000114A12698243104B1A61704712494039FD
:1027E000086070470F49C86470470B49C87170474B
:1027F0000948406A40F080700749486270470146C6
:102800000020054A92680A400AB1012000E0002039
:102810007047014988727047001002400000FFF8BD
:10282000FFFFF6FE000042428004424200127A009E
:1028300000093D00AC010020BC01002010B5044699
:10284000FB48844209D101218803FFF7ADFF002135
:102850004FF48040FFF7A8FF32E0F648844209D1E8
:1028600001214804FFF7ADFF00214FF40030FFF7CE
:10287000A8FF25E0F048844209D101218804FFF730
:10288000A0FF00214FF48020FFF79BFF18E0EB48EA
:10289000844209D10121C804FFF793FF00214FF4BE
:1028A0000020FFF78EFF0BE0E548844208D10121AC
:1028B0000805FFF786FF00214FF48010FFF781FF26
:1028C00010BD2DE9F04786B005460E460024A2460D
:1028D00000BFA1460027B08900B100BF2F462C8A57
:1028E0004CF6FF700440F08804432C82AC894EF60D
:1028F000F3100440B08831890843718908430443C8
:10290000AC81AC8A4FF6FF400440B0890443AC82EE
:1029100001A8FFF7C2FEC648874202D1DDF810A029
:1029200001E0DDF80CA0A88900F4004040B10AEBFA
:10293000CA0000EB0A1031684900B0FBF1F807E06B
:102940000AEBCA0000EB0A1031688900B0FBF1F80D
:102950006420B8FBF0F004012009642101FB108918
:10296000A88900F4004040B1322000EBC900B0FB60
:10297000F1F000F00700044308E0322000EB0910FA
:102980006421B0FBF1F000F00F0004432C8106B08D
:10299000BDE8F0874FF41651016000218180C180AD
:1029A00001810C21418100218181704710B50246CF
:1029B0000020108A4FF2FF0318400B884C882343F5
:1029C0008C882343CC8823431843108210BD0021F8
:1029D000018041808180C180704721B1828942F4A9
:1029E0000052828104E082894DF6FF731A40828191
:1029F0007047F0B50346002400260025002040F66D
:102A00006A17B94200D100BF1846C1F3421401F061
:102A10001F06012707FA06F5012C01D10C3004E04E
:102A2000022C01D1103000E014301AB107682F4396
:102A3000076002E00768AF430760F0BD1AB1838A00
:102A40000B43838202E0838A8B4383827047028A2E
:102A50004FF6F0731A400282028A0A4302827047DC
:102A600082894FF2FF731A40828182890A438281F0
:102A7000704721B1828942F00202828104E082899A
:102A80004FF6FD731A4082817047028A4FF6DF735A
:102A90001A400282028A0A430282704721B1028AE6
:102AA00042F48042028204E0028A4BF6FF731A402D
:102AB00002827047C1F3080282807047014688880D
:102AC000C0F308007047818941F00101818170479E
:102AD000028BD2B20283028B42EA01220283704748
:102AE000028B02F47F420283028B0A430283704707
:102AF00021B1828A42F02002828204E0828A4FF66B
:102B0000DF731A408282704721B1828A42F010023C
:102B1000828204E0828A4FF6EF731A408282704705
:102B200021B1828A42F00802828204E0828A4FF652
:102B3000F7731A408282704721B1828942F40042C1
:102B4000828103E08289C2F30E028281704721B143
:102B5000828A42F40062828204E0828A4FF2FF732A
:102B60001A4082827047828A4FF6FB731A40828233
:102B7000828A0A438282704721B1828A42F002022D
:102B8000828204E0828A4FF6FD731A408282704787
:102B900002460020B1F5007F00D100BF13880B4032
:102BA0000BB1012000E00020704701F40072B2F583
:102BB000007F00D100BFCA430280704770B5024653
:102BC000002400230025002040F66A16B14200D1FF
:102BD00000BFC1F3421501F01F03012606FA03F3FB
:102BE000012D02D19689334006E0022D02D1168ACA
:102BF000334001E0968A33400C12012606FA04F4B1
:102C00001688344013B10CB1012000E0002070BDE3
:102C100010B50022002340F66A14A14200D100BF83
:102C20000A1201249440A3B2DC43048010BD0000CA
:102C3000003801400044004000480040004C004083
:102C40000050004010B50446FA48844208D10121E2
:102C50004015FFF7A9FD00216015FFF7A5FD17E05E
:102C6000F548844208D101210015FFF79DFD0021A0
:102C70002015FFF799FD0BE0F048844208D10121AF
:102C8000C803FFF791FD00214FF40040FFF78CFDD2
:102C900010BD30B50246002000235068E84C2040AB
:102CA0000D790C6844EA0524204350609068E54C97
:102CB0002040D1E902542C434D7944EA4504204395
:102CC0009060D06A20F470000C7C641EE4B2234350
:102CD00040EA0350D06230BD0021016001714171B2
:102CE0008160C16001210174704721B1826842F0A6
:102CF0000102826003E0826822F001028260704774
:102D000021B1826842F48072826003E0826822F41A
:102D100080728260704710B50023CBB21AB144684C
:102D20001C43446002E044689C43446010BD8168D9
:102D300041F0080181607047014600208A6802F076
:102D400008020AB1012000E000207047816841F0CC
:102D5000040181607047014600208A6802F0040285
:102D60000AB1012000E00020704721B1826842F4DE
:102D7000A002826003E0826822F4A00282607047B1
:102D8000014600208A6802F480020AB1012000E0B6
:102D90000020704710B50A4600210023416821F445
:102DA0006041531E41EA4331416010BD21B1426888
:102DB00042F40062426003E0426822F40062426032
:102DC0007047F0B504460D4600200021092D11DDA5
:102DD000E068A5F10A0606EB4607072606FA07F1A2
:102DE0008843A5F10A0606EB460603FA06F10843F6
:102DF000E0600CE0206905EB4507072606FA07F1BD
:102E0000884305EB450603FA06F108432061072ACB
:102E10000FDA606B561E06EB86071F2606FA07F1CF
:102E20008843561E06EB860605FA06F108436063E2
:102E300022E00D2A0FDA206BD61F06EB86071F262D
:102E400006FA07F18843D61F06EB860605FA06F157
:102E50000843206310E0E06AA2F10D0606EB860746
:102E60001F2606FA07F18843A2F10D0606EB860637
:102E700005FA06F10843E062F0BD21B1826842F430
:102E80008012826003E0826822F4801282607047C0
:102E90000146C86C80B2704766484C300068704785
:102EA00021B1426842F48062426003E0426822F449
:102EB00080624260704721B1426842F480524260B1
:102EC00003E0426822F48052426070470A460021C3
:102ED000816821F4E04111438160704721B182682B
:102EE00042F40042826003E0826822F40042826081
:102EF000704721B1826842F40212826003E0826866
:102F000022F4021282607047014600208A6802F4AF
:102F100000120AB1012000E000207047F0B504461D
:102F20001546002000220026092911DDE068A1F1E4
:102F30000A0707EB470C072707FA0CF29043A1F1A9
:102F40000A0707EB470703FA07F21043E0600CE0BB
:102F5000206901EB410C072707FA0CF2904301EBC3
:102F6000410703FA07F210432061A06BC0F301563A
:102F7000EF1C06F1010CA7EB0C0707EB870C1F27D2
:102F800007FA0CF29043EF1C06F1010CA7EB0C07BB
:102F900007EB870701FA07F21043A063F0BD10B5F5
:102FA0000A4600210023816B21F44011531E41EA9F
:102FB0000351816310BD08B5002300930090009B6E
:102FC0000B440093009B1A6008BD08B50246002020
:102FD0000090009201F12800009B18440090009896
:102FE000006880B208BD0A4600214168164B1940AE
:102FF0001143416070474162826270470A46002176
:10300000416821F01F0111434160704740B10949F7
:103010000831096841F40001064A0832116007E0EE
:1030200004490831096821F40001024A083211609C
:10303000704700000024014000280140003C01408E
:10304000FFFEF0FFFDF7F1FFFFFD3FFF024600200E
:1030500013680B400BB1012000E000207047CA4309
:103060000260704770B502460020002300240B1256
:103070005568CEB205EA060415681D4015B10CB1BD
:10308000012000E0002070BD00220A12D34303603B
:103090007047000010B50446FE48844208D1012163
:1030A000C014FFF781FB0021E014FFF77DFBC4E0B3
:1030B000B4F1804F08D101210846FFF782FB0021BF
:1030C0000120FFF77EFBB8E0F348844208D10121DC
:1030D0000220FFF776FB00210220FFF772FBACE035
:1030E000EE48844208D101210420FFF76AFB002149
:1030F0000420FFF766FBA0E0E948844208D10121E3
:103100000820FFF75EFB00210820FFF75AFB94E040
:10311000E448844208D101211020FFF752FB00212E
:103120001020FFF74EFB88E0DF48844208D10121E0
:103130002020FFF746FB00212020FFF742FB7CE028
:10314000DA48844208D101214014FFF72DFB002109
:103150006014FFF729FB70E0D548844209D10121B2
:10316000C804FFF721FB00214FF40020FFF71CFBF0
:1031700063E0D048844209D101210805FFF714FB20
:1031800000214FF48010FFF70FFB56E0CA4884423D
:1031900009D101214805FFF707FB00214FF400107A
:1031A000FFF702FB49E0C548844208D101214020D5
:1031B000FFF707FB00214020FFF703FB3DE0C0487D
:1031C000844208D101218020FFF7FBFA00218020F2
:1031D000FFF7F7FA31E0BB48844208D1012180159E
:1031E000FFF7EFFA0021A015FFF7EBFA25E0B6484C
:1031F000844209D101210804FFF7D6FA00214FF4D7
:103200008030FFF7D1FA18E0B048844209D101219B
:103210004804FFF7C9FA00214FF40030FFF7C4FA61
:103220000BE0AB48844208D101218804FFF7BCFAC7
:1032300000214FF48020FFF7B7FA10BD002202886A
:10324000944B98420ED0994B98420BD0B0F1804FDE
:1032500008D0914B984205D0904B984202D0904BA9
:10326000984204D14FF68F731A404B881A438D4B06
:10327000984207D08C4B984204D04FF6FF431A4037
:10328000CB881A4302808B8883850B880385814B0A
:1032900098420BD0854B984208D08B4B984205D072
:1032A0008A4B984202D08A4B984201D10B7A03860E
:1032B00001238382704770B5002400220023058C0F
:1032C0004FF6FE7635400584028C8388048B4FF6DA
:1032D0008F752C40B51E2C400D882C43751E2A403E
:1032E0000D892A434D882A436A4DA8420BD06F4D61
:1032F000A84208D0744DA84205D0744DA84202D00F
:10330000734DA84213D14FF6F7752A404D892A43D1
:103310004FF6FB752A408D882A434FF6FF652B40F8
:103320004FF6FF552B408D892B43CD892B4383804E
:103330000483CD888586028470BD70B50024002288
:103340000023058C4FF6EF7635400584028C838888
:10335000048B48F6FF752C404FF6FF452C400D8836
:103360004FF6FF7606EA05252C434FF6DF752A4017
:103370000D8906EA05152A434D8806EA05152A43F4
:10338000444DA84202D0494DA8421DD14FF67F7549
:103390002A404D894FF6FF7606EA05152A434FF677
:1033A000BF752A408D8806EA05152A434FF6FF357A
:1033B0002B404FF2FF752B408D8906EA85052B4384
:1033C000CD8906EA85052B4383800483CD88058754
:1033D000028470BD70B5002400220023058C4FF6D6
:1033E000FF6635400584028C8388848B4FF68F7589
:1033F0002C404FF6FC752C400D882C434FF6FF55A2
:103400002A400D894FF6FF7606EA05252A434D88A6
:1034100006EA05252A431F4DA84202D0234DA842A3
:103420001DD14FF2FF752A404D894FF6FF7606EA0F
:1034300005252A434FF6FF352A408D8806EA0525E3
:103440002A434EF6FF752B404DF6FF752B408D89B4
:1034500006EA05152B43CD8906EA05152B43838023
:103460008483CD888587028470BD70B500220023D7
:103470000024058C4EF6FF7635400584038C848845
:10348000828B48F6FF752A404FF6FF452A400D888B
:1034900020E00000002C0140000400400008004033
:1034A000000C0040001000400014004000340140B7
:1034B000004C014000500140005401400018004001
:1034C000001C00400020004000400140004401403A
:1034D000004801404FF6FF7606EA05252A434DF6DF
:1034E000FF752B400D8906EA05352B434D8806EA0A
:1034F00005352B43FA4DA84202D0FA4DA84208D117
:103500004BF6FF752C408D894FF6FF7606EA851540
:103510002C4384808283CD88A0F84050038470BD02
:10352000828B4FF2FF331A408283828B4FF6FF73F8
:1035300003EA01231A4382837047F0B50C4615460F
:10354000002200210026078C4EF6FF7C07EA0C07BC
:103550000784828B018C4FF6FF7707EA043640F62A
:10356000FF473A404FF6FF7707EA05273A434FF601
:10357000FF7707EA03373A43D94FB8420ED0D94F05
:10358000B8420BD0B0F1804F08D0D74FB84205D029
:10359000D64FB84202D0D64FB84206D14DF6FF778B
:1035A000394046F48057394305E047F6FF57394024
:1035B00044F48057394382830184F0BD828B4FF6F7
:1035C000F3731A408283828B0A4382837047F0B57B
:1035D0000C461546002200210026078C4FF6FF6C92
:1035E00007EA0C070784828B018C4FF6FF7707EA06
:1035F00004264FF60C773A404FF6FF7707EA031799
:103600002F433A43B64FB8420ED0B64FB8420BD014
:10361000B0F1804F08D0B44FB84205D0B34FB84294
:1036200002D0B34FB84206D14FF6FF57394046F4A7
:103630008077394305E04FF2FF57394044F48077F3
:10364000394382830184F0BD028B4FF2FF331A406D
:103650000283028B4FF6FF7303EA01231A430283AE
:103660007047F0B50C461546002200210026078C55
:103670004FF6EF7C07EA0C070784028B018C4FF6AC
:10368000FF7707EA041640F6FF473A404FF6FF7708
:1036900007EA03373A434FF6FF7707EA05273A432D
:1036A0008F4FB8420ED08F4FB8420BD0B0F1804F41
:1036B00008D08D4FB84205D08C4FB84202D08C4F05
:1036C000B84206D14FF6DF77394046F0100739434C
:1036D00005E04FF65F77394044F010073943028325
:1036E0000184F0BD028B4FF6F3731A400283028B04
:1036F0000A4302837047F0B50C46154600220021AC
:10370000068C4FF6FE773E400684028B018C4FF606
:103710000C7632407E1C06EA03162E433243704E6E
:10372000B0420ED06F4EB0420BD0B0F1804F08D0F7
:103730006D4EB04205D06D4EB04202D06C4EB042DC
:1037400006D14FF6FD76314044F00106314305E0E5
:103750004FF6F576314044F001063143028301848F
:10376000F0BD70B505460C465D4885420ED05D48FB
:1037700085420BD0B5F1804F08D05B48854205D01B
:103780005A48854202D05A48854200D100E000BF25
:10379000208850B92389A28861882846FFF7ABFFAB
:1037A000E1882846FFF79EFF25E0208804280AD1FB
:1037B0002389A28861882846FFF753FFE1882846BD
:1037C000FFF742FF17E0208808280AD12389A28842
:1037D00061882846FFF7FBFEE1882846FFF7EEFEEA
:1037E00009E02389A28861882846FFF7A6FEE188C0
:1037F0002846FFF795FE70BD2DE9F04105460C46C1
:1038000000260127608808B9022600E00026A0886B
:10381000012801D1022700E001272088A0B92389CF
:10382000A28861882846FFF766FFE1882846FFF7EF
:1038300059FF23893A4631462846FFF712FFE188AF
:103840002846FFF701FF13E02389A28861882846F4
:10385000FFF707FFE1882846FFF7F6FE23893A467F
:1038600031462846FFF747FFE1882846FFF73AFF31
:10387000BDE8F0810A884B881A438B881A43CB88AD
:103880001A430B891A434B891A438B891A43A0F8B0
:10389000442070474FF6FF71818000210180C18074
:1038A0004180017270470021018041808180C18088
:1038B000018141818181C181704700210180418066
:1038C000012181800021C180018170470021018098
:1038D00041808180C18001814181818170470000E8
:1038E000002C01400034014000040040000800406A
:1038F000000C004021B1028842F00102028004E085
:1039000002884FF6FE731A400280704731B1B0F85A
:10391000442042F40042A0F8442005E0B0F84420DE
:10392000C2F30E02A0F8442070471AB183890B43FA
:10393000838102E083898B43838170478182704752
:1039400041EA0203A0F8483070471AB183890B435B
:10395000838102E083898B438381704701894FF61D
:10396000F8721140018170470A46002101894FF623
:103970008F73194011430181704730B504460D46DD
:1039800029462046FFF7F0FF208940F007002081FC
:1039900030BD2DE9F04104460D4616461F46602D08
:1039A00006D13B46012231462046FFF75AFE05E08C
:1039B0003B46012231462046FFF79DFE2946204620
:1039C000FFF7D2FF208940F007002081BDE8F08199
:1039D00030B50C4600210189C9B24FF6FF7505EAE2
:1039E0000325154325432943018130BD2DE9F041CD
:1039F00005460E4617469846002443463A46314649
:103A00002846FFF7E5FF2C894FF6F870044044F094
:103A100007044FF68F70044044F070042C81BDE819
:103A2000F081F0B504460D4616461F463B46324629
:103A300029462046FFF7CCFF208940F480402081B2
:103A4000F0BD0185828270470A46002101884FF649
:103A50008F731940114301807047F0B50C4615462D
:103A60001E460021002200230189028B038C4FF6A1
:103A7000F877394021434FF6FC473A4040F20117AE
:103A80003A434FF6DD773B404FF6FF7707EA0617DC
:103A90002F433B43018102830384F0BD0A4600218A
:103AA000018B4FF68F7319401143018370470A460B
:103AB0000021018B48F6FF7319404FF6FF7303EAAC
:103AC00002231943018370470A460021818B4FF678
:103AD0008F7319401143818370470A460021818BFF
:103AE00048F6FF7319404FF6FF7303EA02231943A8
:103AF0008183704721B1028842F08002028004E095
:103B000002884FF67F731A400280704721B1828885
:103B100042F00402828004E082884FF6FB731A4070
:103B20008280704721B1828842F00802828004E0DE
:103B300082884FF6F7731A408280704721B18288DD
:103B400042F00102828004E082884FF6FE731A4040
:103B5000828070470A460021018B4FF6F7731940A7
:103B60001143018370470A460021018B4FF2FF7316
:103B700019404FF6FF7303EA02231943018370478C
:103B80000A460021818B4FF6F77319401143818358
:103B900070470A460021818B4FF2FF7319404FF6A0
:103BA000FF7303EA02231943818370470A46002109
:103BB000018B4FF6FB7319401143018370470A468E
:103BC0000021018B4FF6FF3319404FF6FF7303EAD4
:103BD00002231943018370470A460021818B4FF667
:103BE000FB7319401143818370470A460021818B82
:103BF0004FF6FF3319404FF6FF7303EA02231943D0
:103C0000818370470A460021018B4FF67F7319406C
:103C10001143018370470A460021018BC1F30E0155
:103C20004FF6FF7303EA02231943018370470A46E4
:103C30000021818B4FF67F731940114381837047B8
:103C40000A460021818BC1F30E014FF6FF7303EA90
:103C500002231943818370470A460021018C4FF6E5
:103C6000FD7319401143018470470A460021018CFD
:103C70004FF6F77319401143018470470A4600213B
:103C8000018C4FF6DF7319404FF6FF7303EA0213FE
:103C90001943018470470A460021018C4FF67F7357
:103CA00019404FF6FF7303EA02131943018470476A
:103CB0000A460021018C4FF6FF5319404FF6FF735F
:103CC00003EA02231943018470470A460021018C4C
:103CD0004FF2FF7319404FF6FF7303EA02231943B3
:103CE000018470470A460021018C4DF6FF7319408C
:103CF0004FF6FF7303EA023319430184704730B56E
:103D0000002301248C40A3B2048C9C430484048CC3
:103D100002FA01F5ADB22C43048430BD30B5002366
:103D200004248C40A3B2048C9C430484048C02FAC7
:103D300001F5ADB22C43048430BD70B503460020BC
:103D400000241846183001258D40ACB21D8CA543C7
:103D50001D8409B1082909D100EB6100056825F02F
:103D6000700505600568154305600EE00D1FC5F37D
:103D70004E052844056825F4E045056005684FF6C2
:103D8000FF7606EA02263543056070BD21B1028840
:103D900042F00202028004E002884FF6FD731A40EE
:103DA0000280704721B1028842F00402028004E0E0
:103DB00002884FF6FB731A400280704721B1828857
:103DC00042F08002828004E082884FF67F731A40BE
:103DD0008280704702884FF6F7731A40028002888B
:103DE0000A430280704782884FF68F731A408280A0
:103DF00082880A438280704702894FF6F8731A401E
:103E0000028102890A430281704702894FF67F735B
:103E10001A40028102890A430281704781847047F7
:103E20008185704781867047018770478187704719
:103E3000A0F84010704702884FF6FF431A400280F6
:103E400002880A43028070470146888E7047014607
:103E5000088F70470146888F70470146B1F84000CF
:103E600070470146888C70470146088D70470246AE
:103E70000020138A0B400BB1012000E000207047A6
:103E8000CA430282704730B5024600200023002456
:103E9000158A05EA0103958905EA010413B10CB1FD
:103EA000012000E0002030BDCA4302827047704705
:103EB00070B5064600F056F8056806F10B0020F0D4
:103EC0000704B4429CBF002070BD2B466A68BAB19B
:103ED0001068A04210D304F1080188423CBF50682A
:103EE000586007D35168101941601168091B0160BF
:103EF00058601460101D70BD13465268002AE7D147
:103F00002146284600F036F80028DED170BD70B595
:103F10000446051F00F026F80068002C14BF446812
:103F200070BD002C18BFAC423CBF20466468F8D37B
:103F300001680A18AA4218BF456003D12A680546DD
:103F40001144016028684119A1421CBF6C6070BD1A
:103F50006168696021680844286070BD70477047D7
:103F60007047704700487047300400207047704722
:103F70007047704738B504460A4600206946AFF3DB
:103F80000080002808BF38BD02460099204600F096
:103F90009FF8012038BD012000F0DDB8F8B5AFF37F
:103FA0000080054600200C46102000BF0646A819D8
:103FB000A0420DD9324669460020AFF300800700C9
:103FC00008BF00F0C8F80098A04218BF0546C41901
:103FD000FFF7C8FF05600746F01D20F007004619EF
:103FE000284600F00AF8B44208BFF8BDA21B3146CB
:103FF0003868BDE8F84000F06BB800210160C0E906
:10400000011070471020704710B500F05DF800688F
:1040100010BD10B5044600F057F8046010BD000054
:104020000FB4002300B589B00CA900910B99CB60A7
:10403000204B7B440693204B7B44079304236FF073
:104040000042CDE901321D4A7A446B46089202468D
:10405000002002F00EFC09B05DF814FB70B50646B6
:104060004FF0FF3015460C46324686B00091CDE940
:10407000010169460020049004A8FFF7D1FF034620
:104080000498211825B108B10A4600E022462A60AA
:1040900000280DD0002B02DD0098884208D032465F
:1040A000081B69460094CDE9010404A8FFF7B8FF96
:1040B00006B070BDE1000000F9000000B90000008A
:1040C000004870472804002000487047280400205A
:1040D000034640688C46002818BF88423CBF034610
:1040E0004068F8D318681844884207D00CF10300E0
:1040F00020F00700001D411A521A0146081D0A60EF
:10410000FFF705BF10B5044600F052F80068005DE7
:1041100000F0010010BD426842B1016811F8013B96
:1041200023B1521EC0E90012184670470121C16038
:10413000881E704742685AB1C368016843B98368F2
:104140008B4205D0491E521CC0E900120020704766
:104150004FF0FF30704710B500F090FABDE8104006
:1041600000F086BA7546FFF7ABFFAE46050069461C
:10417000534620F00700854618B020B5FDF75EFFD6
:10418000BDE820404FF000064FF000074FF0000858
:104190004FF0000B21F00701AC46ACE8C009ACE8D9
:1041A000C009ACE8C009ACE8C0098D467047000002
:1041B00010B500F0CBFA001D10BD00BF6D1400005B
:1041C0002DE9FF4F064689B00878FF2806D0491C24
:1041D0002D2805D000244FF0000908E000200CE055
:1041E0000124F8E709EB8903491C00EB430908782F
:1041F000FF28F7D114B1C9F10000814610780025DD
:104200002C46AA4629462D2801D02B2804D1521C21
:104210002D2813D0002082468B461078FF280FD01F
:104220004FF0000C0A21521CA5FB017804FB018110
:1042300005FB0C11C5194BEB0104EEE70120EAE781
:10424000002108464FF00000BAF1000F02D000EB49
:1042500080004008C0F38158B8F1010F01DD4FF034
:10426000FF380C9809EB000755EA040009D04FF01D
:10427000020917F5FA7F0BDA4FEACA70C6E900B0F7
:1042800012E04FEACA70C6E900B00DB0BDE8F08F89
:10429000B7F5FA7F0DDDF0487844D0E90010C6E9A3
:1042A000001040EACA707060FFF70EFFC0F800907F
:1042B000EBE7391E02DAC8F1000200E0424600DAFC
:1042C000794206A800F046FA06AB93E8070003AB74
:1042D00083E8070044F23E005BEA04010090584680
:1042E00004D144F21E012C465D460091210C0904C4
:1042F000014306D10099240444EA15442D041039E1
:10430000009104F07F41014306D10099240244EA60
:1043100015642D020839009104F07041014306D163
:104320000099240144EA15742D01091F009104F03D
:104330004041014306D10099A40044EA9574AD00C0
:10434000891E009104F00041084304D100986D19C2
:104350006441401E009042466846002FCDE9014569
:1043600003A902DD00F02BFF01E000F000FFBAF12D
:10437000000F04460D4601D084F0004440F2FF7760
:1043800024F00040284303D0C4F30A50B84212D1AD
:10439000FFF79AFEC0F80090C4F30A50B8420AD161
:1043A000AE487844D0E90010C6E9001004F000419E
:1043B0000843706069E7C6E9005466E72DE9FF4FDE
:1043C0001F464FF0000A4FF0FF38454691B0D7E93D
:1043D0000146CDF83CA000F0B9F9C0680168405C26
:1043E0001090B96912986D1C8847396A81468847D0
:1043F0000028F6D1B9F1FF3F0AD0002E24F4D06492
:1044000011DDB9F12B0F08D0B9F12D0F0BD102E05E
:10441000404615B03AE744F48064B96912986D1CBF
:104420008847761E8146600504A901D52D2000E04D
:104430002B20002E01F1010B0DF130088DF810003A
:104440003FDDB9F1690F08D0B9F1490F05D0B9F1D5
:104450006E0F02D0B9F14E0F1CD13B4601A800955A
:1044600080E85002DDE912126FF0020002F005FA56
:10447000C11CCED10EE0B96912986D1C88478146E7
:104480001398761E44F4007405600F98401C002EAB
:104490000F9016DDB9F1300FEDD0B9F1780F02D0E1
:1044A000B9F1580F0DD10F9801280AD13B46CDE93B
:1044B0000054DDE91212001F029602F0DCF9C11C63
:1044C000A7D1109989453ED144F0800406E01399A4
:1044D000681CAAF1010A44F400740860B9696D1CF3
:1044E0001298761E884730288146F0D02BE010992C
:1044F000894505D1200603D4761E44F0800418E0D7
:10450000484600F0F8FF08B3761E0DF123018B45F5
:1045100044F4007408D2A9F130000BF8010B200616
:1045200007D5AAF1010003E0200602D40AF1010038
:104530008246A00502D51399681C0860B9691298D3
:104540006D1C88478146002ED1DC53E0002E51DDE2
:10455000B9F1650F02D0B9F1450F4BD1A00549D58E
:10456000B9696D1C1298761E24F440748847002E99
:1045700081460CDD2B2804D0B9F12D0F07D144F46E
:104580008074B96912986D1C8847761E8146E005D3
:1045900001D52D2100E02B2108F8011BCDF800806A
:1045A00021E0761E0DF13901884544F400740CD2E7
:1045B000A9F1300010F0FF0088F8000002D1009946
:1045C000884509D908F1010806E0E00501D524482D
:1045D00001E042F20F708246B96912986D1C88475B
:1045E000814613980560002E04DD484600F083FFE5
:1045F0000028D6D1F96912988847FF2053468BF8D6
:10460000000088F8000000200A900B9004AA0CA972
:104610000AA8FFF7D5FDA00502D46FF00100F8E667
:1046200014F0240F0AD0E00714D13868DDE90A122B
:10463000031D3B600068C0E900120BE00AA9684650
:1046400000F002FFE00705D13868009A011D3960CB
:10465000006802602846DCE6C8280000BE2700008B
:10466000F1D8FFFF0446AFF300802046FBF7C9FDF9
:10467000002801D0FDF7A2BA7047000010B501284C
:1046800005D0002103A000F0D3F8012010BD09A13E
:10469000F8E7000053494752544D454D3A204F75B5
:1046A00074206F662068656170206D656D6F72792A
:1046B000000000003A2048656170206D656D6F72E2
:1046C0007920636F72727570746564004FF0013CFD
:1046D00050F8042B51F8043B9A4221D1A2EB0C0371
:1046E000934313EACC1317D150F8042B51F8043B31
:1046F0009A4215D1A2EB0C03934313EACC130BD1CE
:1047000050F8042B51F8043B9A4209D1A2EB0C0358
:10471000934313EACC13DBD04FF00000704700BF87
:10472000D01A01BAB1FA81F101F0180122FA01F0B0
:10473000CB40C1F12001DBB2C0B2C01A2CFA01F3A8
:10474000D11A914311EAC311E6D17047004870476E
:10475000480400202DE9F047814616468AB03348C8
:1047600078440DC88DE80D0030487844801C03ACB7
:104770000DC884E80D0041F69B300844372190FBBA
:10478000F1F290FBF1F5A5F1800501FB12041B3C51
:1047900002D56442012000E00020DFF890A08046AE
:1047A0000027FA44AAF1BE0A0DE0E00709D032461C
:1047B000684607EB47010AEB810100F0ECFC8DE84D
:1047C000070064107F1C002CEFD1184F7F44AC3FD2
:1047D00018E0E80714D007EB04100DF1180A90E870
:1047E0000E008AE80E00C068F04201D198190890C6
:1047F000324606A903A800F0CEFC03AB83E807000D
:104800006D10641C002DE4D132466946B8F1000FEA
:1048100003A802D000F097FC01E000F0BCFCC9E95D
:104820000001C9F808200AB0BDE8F087C8230000DD
:1048300070B505460C460A2000E06D1CFDF7CCF96A
:1048400035B128780028F8D102E0641CFDF7C4F9DE
:1048500014B120780028F8D1BDE870400A20FDF797
:10486000BBB900002DE9FF4F1F464FF03C0987B050
:104870004FF00042DDE9141001F10108DDF858A005
:1048800002EA405003900020049083460546044607
:104890000590B969461E08988847AAF1010A029056
:1048A000BAF1000F37DD02982E2815D0102100F044
:1048B00012FA00282ADB4FF0010B0499014316D0AD
:1048C000B9F1000F0BDB4A46C11700F0F1F90543BF
:1048D0000C43A9F1040905E00120059007E008B1A7
:1048E00045F0010501200490059800B9361DB9690D
:1048F000089808F101088847BBF1000FAAF1010AE6
:104900000290CDD00999C1F80080C9E702987028BB
:1049100008D0502806D0F96908988847BBF1000FE5
:1049200014D04FE0002002900120BBF1000F049052
:1049300009D0B969089808F101088847AAF1010966
:10494000B9F1000F07DCF969089888476FF001009A
:104950000BB0BDE8F08F2B2804D02D280CD14FF0E0
:10496000FF300490B969089808F101088847A9F157
:104970000109B9F1000FE6DD411CE4D00A2100F085
:10498000AAF90028DFDB029908F1010801EB810197
:1049900000EB41000290B969089888470A2100F0AD
:1049A0009AF9099AA9F10109B9F1000FC2F800803A
:1049B00001DD0028E7DAF969089888470499029828
:1049C00000FB016655EA040004D004F040410900F0
:1049D00002D006E0039898E0A40044EA9574AD0084
:1049E000B61E04F00041080002D16D196441761E24
:1049F000159810F0240F03D04FF00B095C4803E02A
:104A00004FF028096FF07D008246564507DAAAEB81
:104A100006018944B9F1410F01DD4FF04109012040
:104A20000021A9F1010200F043F9024628400B469B
:104A30002140084301D0012100E00021501E0291D5
:104A400043F1FF3128402140084301D0012000E01C
:104A500000200299834651EA0B014FD000210846FD
:104A60004FF00000039900F4400039B100EB8000E2
:104A70004FF4400100EBD07001EA6000801501287E
:104A800002DD4FF0FF3000E013D0401C36D002981A
:104A900060B3BBF1000F0CD14A460120002100F0A9
:104AA00007F928402140084301D0012000E0002000
:104AB000E0B101204A46002100F0FAF8034640190F
:104AC0000A4661412D1A8C4111D3B9F1400F09DD1D
:104AD000159810F0240F02D0AAF1340603E0AAF1D1
:104AE000170600E0761C00254FF0004406E05B1E30
:104AF00042F1FF3220EA030521EA0204CAF1010073
:104B0000B04206DA1B490398084301900020009048
:104B10000EE0039AC4F3D321E80A0A43164940EA97
:104B200044500A433146CDE90002684600F0D8FC03
:104B3000159810F0240F0BD01598C00715D13868C0
:104B4000DDE90012031D3B600068C0E900120CE0C3
:104B500002A8694600F078FC1598C00705D13868AE
:104B6000029A011D3960006802604046F0E60000CC
:104B700002FCFFFF0000F07F0000F03F2DE9FF4F37
:104B800092461D4685B04FF00041DDE9124BDDE94C
:104B900014727F1E01EA4B50414940F0FF4940EA40
:104BA0000108002122F020004928049102D04E285B
:104BB00028D04CE03BA0012607C88DE80700A96972
:104BC0000698641C88477F1E014606D41DF806001F
:104BD00018B121F0200181420BD0E969069888477D
:104BE000032E34D0082E32D06FF0010009B0BDE89A
:104BF000F08F761C032E01D0082EE0D1601CCAF87D
:104C00000000DCE7A9690698641C88477F1E2AD447
:104C100020F02000412826D1A9690698641C884705
:104C20007F1E20D420F020004E281CD1A9690698B0
:104C3000641C88477F1E48F4002849F48009CAF89C
:104C4000004001D4282806D0E969069888475FEA21
:104C5000CB7012D022E0A9690698641C88477F1E99
:104C600001D4002803DAE96906988847BCE72928B7
:104C7000F1D1641CCAF80040E9E71BF0240F07D00B
:104C800028680499031D2B600068C0E9001805E03E
:104C90002868021D2A600068C0F800902046A5E739
:104CA0000000F07F494E46494E495459000000002B
:104CB000B2F120030AD5C2F1200301FA02F120FA71
:104CC00003F300FA02F041EA0301704700FA03F12E
:104CD0004FF0000070473A2800D2303820F0200210
:104CE000412A01D3A2F13700884201D34FF0FF30AF
:104CF000704720F07F4C80EA030023F07F47ACEB45
:104D0000070303F57C5300F0004003F1FF032DE996
:104D100080494FEA154B09B44FEA144325EA0B4E7C
:104D200024EA03480FF2042606EB132749083E78CD
:104D30005FEA320203FB0667C7F5000707FB06F6CA
:104D40004FEA54374FEAD64606F1020607FB066CD7
:104D5000CCF1005C4FEA1C472CEA074C07FB06F439
:104D60000CFB06F504EB15464FEA961634BF0020FF
:104D70004FF000404FEAD13706FB07FC4FEA1C4CCE
:104D80000CFB0BF7D21B03FB0CF761EB07010CFBD1
:104D90000EF7B0EB074072EB17420CFB08F734BF7D
:104DA000A2EB0742B2EB074261EB17414FEA0C441A
:104DB0004FEA910706FB07FC4FEA1C4C0CFB0BF774
:104DC000B0EBC74072EB573203FB0CF734BFA2EBDA
:104DD000C742B2EBC74261EB57310CFB0EF7B0EBA9
:104DE000C70072EB57720CFB08F734BFA2EBC70287
:104DF000B2EBC70261EB5771039F4FEA816141EA51
:104E0000921104EBCC044FEAD1374FEA826206FBE1
:104E100007FC42EA90124FEA80604FEA1C4C0CFB00
:104E20000BF7D21B03FB0CF761EB07010CFB0EF732
:104E3000B0EB074072EB17420CFB08F734BFA2EB54
:104E40000742B2EB074261EB17414FEA8C554FEA3C
:104E5000910704EB9C2406FB07FC4FEA1C4C0CFB5F
:104E60000BF7B0EBC74072EB573203FB0CF734BFC4
:104E7000A2EBC742B2EBC74261EB57310CFB0EF716
:104E8000B0EBC70072EB57720CFB08F734BFA2EB14
:104E9000C702B2EBC70261EB577115EB4C254FEA25
:104EA000816141EA92114FEA82624FEAD13742EAC8
:104EB000901206FB07FC44F100044FEA80604FEAC1
:104EC0001C4C0CFB0BF7D21B03FB0CF761EB07012F
:104ED0000CFB0EF7B0EB074072EB17420CFB08F728
:104EE00034BFA2EB0742B2EB074261EB174115EB6F
:104EF0001C154FEA813141EA92414FEA823242EA7F
:104F000090424FEA80304FEA0C7644F1000448EAC0
:104F100003434EEA0B484FF0000EB2EB080C71EB66
:104F2000030724BF624639464EEB0E0E4FF0000BCE
:104F30000018524149414BEB0B0BB2EB080C71EBE3
:104F400003077BF1000B24BF624639464EEB0E0E81
:104F50004FF0000B0018524149414BEB0B0BB2EBE9
:104F6000080C71EB03077BF1000B24BF6246394646
:104F70004EEB0E0E51EA020718BF46F0010616EB83
:104F80000E7655F1000254F1000103D5BDE8890108
:104F9000BDE80088BDE88901BDE80048B619524166
:104FA00041EB0101A3F10103704780807F7E7D7C8E
:104FB0007B7A7978777676757473727171706F6EAB
:104FC0006E6D6C6C6B6A6A69686867666665646456
:104FD000636362616160605F5F5E5E5D5D5C5C5BE0
:104FE0005B5A5A595958585757565655555554544F
:104FF000535352525251515050504F4F4F4E4E4DAD
:105000004D4D4C4C4C4B4B4B4A4A4A4949494848F8
:105010004847474747464646454545444444444338
:1050200043434342424242414141000046EA064670
:10503000A3F570534FEA164646EA42564FEAD2228B
:1050400042EA415210B54FEAD121A3F1010300F029
:1050500017F820F0004000F1010C00F0004701EBD0
:1050600000501146BCF5006F40EA070000D210BDA9
:1050700002484FF0000140EA070010BD0000F07F39
:10508000002B26D4770021D01CB54FEA370703B494
:105090004FF010004FF010014FF000000FBCBDE8C2
:1050A00010400BF1010BBBF1010F08BF5FEA1707BE
:1050B00022BF12F1010211F101014FF0004143F151
:1050C000000300F0004043EA00007047F9D357089E
:1050D000DAE746EA064613F1400F4FEA16461FDDAF
:1050E00013F1200FDFBF16430A46002120335B4235
:1050F000C8D0C3F1200746EA064602FA07F74FEA8E
:10510000164646EA0706C3F1200722FA03F201FA1F
:1051100007F721FA03F14FF0000342EA0702B1E773
:1051200046EA020646EA06464FEA164646EA0106FF
:10513000BCBF46EA0646360C4FF000034FF00002B3
:105140004FF000019EE72DE9C048934630B491E846
:10515000380007C831EA400C48BF34EA430C03D595
:10516000FFF7C7FDFFF78CFFF0BCBDE800882DE915
:10517000C048934630B491E8380007C831EA400C83
:1051800048BF34EA430C03D5FFF7B3FDFFF74EFFEA
:10519000F0BCBDE800882DE9C048934630B491E8E2
:1051A000380007C810F0804F08BF13F0804F03D1BC
:1051B00000F019F8FFF764FFF0BCBDE800882DE9A6
:1051C000C048934630B491E8380007C810F0804FCB
:1051D00008BF13F0804F03D100F005F8FFF726FF5A
:1051E000F0BCBDE8008820F07F4780EA030023F090
:1051F0007F4C07EB0C03A3F57C5300F00040A3F1B8
:10520000FE0392F0000F00F0B38095F0000F00F065
:1052100077802DE901494FEA11404FEA144621EA0F
:10522000004800FB06FC24EA064708FB06F607FBDD
:1052300008F800FB07F718EB06484CEB164C4FEA52
:10524000124B18EB07484FEA15464CEB174022EA81
:105250000B4E0BFB06FC25EA06470EFB06F607FB8A
:105260000EFE0BFB07F71EEB064E4CEB164C4FF0F9
:1052700000061EEB074E4CEB174B18EB0B0840F1EA
:10528000000018EB0E0B58EB000840F100008F1ADD
:105290004FF000013CBFC943661B14BFB5EB040CC3
:1052A00000213CBFC943F61B4FEA17444EEA8E0E5D
:1052B00027EA04454FEA1C4704FB07622CEA074C27
:1052C00005FB07F70CFB05F604FB0CFC16EB074689
:1052D00042EB174216EB0C4642EB1C421BEB060658
:1052E00058EB0202414146EA9E0601D5BDE801891C
:1052F000B619524141EB0101A3F10103BDE8018957
:105300004FEA14454FEA114724EA054621EA074CC3
:1053100005FB07F406FB07F70CFB06F105FB0CFC8D
:1053200011EB074144EB17444FEA124711EB0C41D4
:1053300044EB1C4422EA074C05FB07F206FB07F787
:105340000CFB06F605FB0CFC16EB074642EB17427E
:1053500016EB0C4642EB1C456A1854F1000148BF9D
:105360007047B619524141EB0101A3F101037047A7
:1053700095F0000F37D04FEA11424FEA144721EA67
:10538000024624EA074C02FB07F106FB07F70CFB79
:1053900006F402FB0CFC14EB074441EB17414FEA07
:1053A000154714EB0C4441EB1C4125EA074C02FB6A
:1053B00007F506FB07F70CFB06F602FB0CFC16EBE9
:1053C000074645EB174516EB0C4645EB1C421219F8
:1053D00051F1000148BF7047B619524141EB01013C
:1053E000A3F1010370474FEA14454FEA114724EA3D
:1053F000054621EA074C05FB07F106FB07F70CFB06
:1054000006F24FF0000605FB0CFC12EB074241EBE5
:10541000174112EB0C4251EB1C4148BF70479218E8
:1054200041EB0101A3F10103704740F2013200207A
:105430004FF0E04101F0EFB9024A0020110701F0FE
:10544000EAB9000001FDFFFF10B50446D1E90001F3
:1054500000F002F8206010BDF8B504460D466A461B
:1054600000F066F800987E30009000281FDC0022D3
:1054700013462046294600F033FB18D0002140F6A1
:1054800008004FF0000006462046294600F0E2F8EA
:10549000044640F6080006EA00014FF0000034F030
:1054A000004004BF0220FEF7B4FD2046F8BD00987E
:1054B000FF280DDB0220FEF7ACFD0022134620463C
:1054C000294600F0ADFC8CBF04484FF0FF40F8BD0A
:1054D00020462946BDE8F84000F0BCB8000080FF37
:1054E00010B504460A46D4E90003194600F04CF80A
:1054F000C4E9000110BD30380A2801D201207047EC
:105500000020704730B583B00446FEF77DFD0546A8
:105510000020CDE90000024621466846FEF79EFDC8
:105520002846FEF776FDDDE9000103B030BD00003E
:1055300010B5144600222260114A21F00043934224
:10554000A8BF10BD53EA000208BF10BDB3F5801F0D
:10555000A8BF226807DA362201F05DF96FF0350244
:1055600021F000432260DFF81CC06FF31E510CEBEA
:1055700023531A4441F0FF5141F00051226010BD05
:105580000000F07F02FCFFFF2DE9F04106460C46CB
:1055900040F2FF75174635EA14502BD0002213460F
:1055A000304600F09DFA25D03A463046214601F0BB
:1055B00032F906460C4635EA145010D00022134644
:1055C000304600F08DFA15D10220FEF722FDFFF7DC
:1055D00033FF0A46214662F31E01BDE8F081022036
:1055E000FEF717FDFFF721FF0A46214662F31E0171
:1055F000BDE8F08130462146BDE8F08110B50029B4
:105600000AD00878002807D005487844FFF75EF8EC
:10561000002801D0002010BD0248784410BD0000D1
:10562000621500005A15000010B500290AD008784C
:10563000002807D005487844FFF748F8002801D033
:10564000002010BD0248784410BD00005215000033
:105650004A15000021F00042A2F16052B2F5801F0D
:1056600001F0004328BFD2F17F6C0BD95FEA001C28
:1056700043EAC20242EB507018BF704728BF20F0C7
:1056800001007047B2F5801FBCBF184670474FEA53
:10569000410C1CF5001F02D2084600F0D4BF70B5C3
:1056A00000F06AFB00000089FFF7F6BF4FF00040F2
:1056B000A0F580007047000010B591EA030F48BFC5
:1056C00083F0004300F1EA83841A71EB030C05D2E6
:1056D000121943EB0C03001B61EB0C01DFF824E112
:1056E0004FEA1154A4EB135C1EEA430F18BF9EEA65
:1056F000445F73D023EA0E03DCF1200E21EA04514B
:1057000043F4801332D322FA0CFE10EB0E0023FA7E
:105710000CFE41EB0E01CCF1200E03FA0EFE10EB55
:105720000E0051F10001B1F5801FCCF1200E32D2F4
:1057300001EB045112FA0EF2BDE8104058BF704759
:10574000401C38BF5FEA420218BF7047002814BFF0
:1057500020F0010041F100014FEA410313F5001F61
:1057600038BF7047A1F1C04100F054BB012A43EBA0
:105770000302ACF1200CDCF11F0E32BF4FF0000E23
:1057800023FA0CF310EB030041EB0451B4EB115F6F
:10579000D0D0A1EB045101F5801149085FEA300037
:1057A00001EB04510ED350F1000038BF12FA0EFE87
:1057B00008D1BDE81040C9E7401C38BF5FEA42028B
:1057C000CAD1C3E7BDE810404FEA410313F5001FFB
:1057D00038BF7047A1F1C04100F01CBB9EEA445F96
:1057E00008D011EA5E0FBDE8104004BF01F000418F
:1057F00000207047BDE8104070B500F0BDFA00BF52
:1058000064FBBE3E0000E0FF02494FF0000000F0E4
:10581000D0BF00BF0000F87F491058BFC1F1404120
:105820005B1058BFC3F140438B42EFF300807047D9
:105830002DE9C04130B4DFF8A0C23CEA111418BF12
:105840003CEA131400F0EC8081EA03051CEA111411
:1058500044EAD57418BF1CEA131500F0C780A4EB06
:1058600005044FF0004545EAC12145EAC32341EA5A
:10587000505143EA525304F17F74994204F50034C5
:105880004FEAC0204FEAC22208BF904200F09C803D
:105890004FEA13650FF24016765D4FEA134506FB9B
:1058A00005F7C7F1807706FB07F74FEAD737A7FB65
:1058B00003687642C8F58038A7FB06CE38BFA8F14A
:1058C000010807FB08E64FF0000EA6FB028CE6FB82
:1058D00003CEDCF1000CCEF1004E38BFAEF1010E6C
:1058E000A6FB0C584FF000074FF00005E6FB0E87B3
:1058F000A1FB08C6A0FB07CE16EB0E0645F100057E
:10590000E1FB076515F1E04E7EBFA4F580345FEA48
:1059100046066D4116F1800745F100054FEA17274D
:105920004FEA066647EA0567A6F1DE46B6F1805FF4
:105930004FEA15251FD9384624F0010C05EBC47138
:10594000BCF1FE6F01EB0C1102D8F0BCBDE8008188
:1059500024425CBF01F5801E9EEAC47F02D4F0BCE5
:10596000BDE80081244238D4F0BCA1F1C041BDE8BB
:10597000004100F04FBA4FEAD22242EA43524FEAC6
:10598000D323A7FB02864FEAD02040EA415007FB11
:1059900003661EEA0E0F4FEAD12105FB026658BFCF
:1059A000A6EB0056B6EB00564FEA520E4EEAC37E07
:1059B00018EB0E0E56EB530EBDD518EB02085E41E8
:1059C0007F1C55F10005B6E74FF480154FF0000736
:1059D0004FF000064FF00008ADE7F0BC4FF00000BC
:1059E00001F1C04101F00041BDE8008111EA0C1F46
:1059F0000CEA131500D00CE013EA0C1F00F0258010
:105A00004FF00000F0BC81EA030101F00041BDE865
:105A10000081F0BCBDE8004181EA030100F0FAB961
:105A2000F0BCBDE8004170B500F0A6F9097EFC3E6F
:105A300000F007B881EA03014FF0000001F00041D7
:105A4000704781EA030100F0E5B9F0BCBDE8004110
:105A50004FF0000021497047FFFDFBF9F7F5F4F224
:105A6000F0EEEDEBE9E8E6E4E3E1E0DEDDDBDAD8F9
:105A7000D7D5D4D3D1D0CFCDCCCBCAC8C7C6C5C457
:105A8000C2C1C0BFBEBDBCBBBAB9B8B7B6B5B4B36E
:105A9000B2B1B0AFAEADACABAAA9A8A8A7A6A5A459
:105AA000A3A3A2A1A09F9F9E9D9C9C9B9A9999981D
:105AB0009797969595949393929191908F8F8E8EC0
:105AC0008D8C8C8B8B8A898988888787868585844D
:105AD00084838382828181800000FF070000F87F39
